{
  "_format": "hh-sol-artifact-1",
  "contractName": "Fanatique",
  "sourceName": "contracts/Fanatique.sol",
  "abi": [
    {
      "inputs": [
        {
          "internalType": "address",
          "name": "_fanToken",
          "type": "address"
        },
        {
          "internalType": "address",
          "name": "_treasury",
          "type": "address"
        }
      ],
      "stateMutability": "nonpayable",
      "type": "constructor"
    },
    {
      "inputs": [],
      "name": "ECDSAInvalidSignature",
      "type": "error"
    },
    {
      "inputs": [
        {
          "internalType": "uint256",
          "name": "length",
          "type": "uint256"
        }
      ],
      "name": "ECDSAInvalidSignatureLength",
      "type": "error"
    },
    {
      "inputs": [
        {
          "internalType": "bytes32",
          "name": "s",
          "type": "bytes32"
        }
      ],
      "name": "ECDSAInvalidSignatureS",
      "type": "error"
    },
    {
      "inputs": [
        {
          "internalType": "address",
          "name": "owner",
          "type": "address"
        }
      ],
      "name": "OwnableInvalidOwner",
      "type": "error"
    },
    {
      "inputs": [
        {
          "internalType": "address",
          "name": "account",
          "type": "address"
        }
      ],
      "name": "OwnableUnauthorizedAccount",
      "type": "error"
    },
    {
      "anonymous": false,
      "inputs": [
        {
          "indexed": true,
          "internalType": "uint256",
          "name": "orderId",
          "type": "uint256"
        },
        {
          "indexed": true,
          "internalType": "address",
          "name": "buyer",
          "type": "address"
        },
        {
          "indexed": false,
          "internalType": "uint256",
          "name": "amount",
          "type": "uint256"
        },
        {
          "indexed": false,
          "internalType": "uint256",
          "name": "clubId",
          "type": "uint256"
        },
        {
          "indexed": false,
          "internalType": "address",
          "name": "relayer",
          "type": "address"
        }
      ],
      "name": "GaslessPaymentProcessed",
      "type": "event"
    },
    {
      "anonymous": false,
      "inputs": [
        {
          "indexed": true,
          "internalType": "address",
          "name": "previousOwner",
          "type": "address"
        },
        {
          "indexed": true,
          "internalType": "address",
          "name": "newOwner",
          "type": "address"
        }
      ],
      "name": "OwnershipTransferred",
      "type": "event"
    },
    {
      "anonymous": false,
      "inputs": [
        {
          "indexed": true,
          "internalType": "uint256",
          "name": "orderId",
          "type": "uint256"
        },
        {
          "indexed": true,
          "internalType": "address",
          "name": "buyer",
          "type": "address"
        },
        {
          "indexed": false,
          "internalType": "uint256",
          "name": "amount",
          "type": "uint256"
        },
        {
          "indexed": false,
          "internalType": "uint256",
          "name": "clubId",
          "type": "uint256"
        }
      ],
      "name": "PaymentProcessed",
      "type": "event"
    },
    {
      "anonymous": false,
      "inputs": [
        {
          "indexed": true,
          "internalType": "uint256",
          "name": "clubId",
          "type": "uint256"
        },
        {
          "indexed": false,
          "internalType": "bool",
          "name": "accepted",
          "type": "bool"
        }
      ],
      "name": "TokenAcceptanceChanged",
      "type": "event"
    },
    {
      "inputs": [
        {
          "internalType": "uint256",
          "name": "",
          "type": "uint256"
        }
      ],
      "name": "acceptedTokens",
      "outputs": [
        {
          "internalType": "bool",
          "name": "",
          "type": "bool"
        }
      ],
      "stateMutability": "view",
      "type": "function"
    },
    {
      "inputs": [
        {
          "internalType": "uint256",
          "name": "",
          "type": "uint256"
        }
      ],
      "name": "allAcceptedClubIds",
      "outputs": [
        {
          "internalType": "uint256",
          "name": "",
          "type": "uint256"
        }
      ],
      "stateMutability": "view",
      "type": "function"
    },
    {
      "inputs": [
        {
          "internalType": "uint256",
          "name": "clubId",
          "type": "uint256"
        },
        {
          "internalType": "address",
          "name": "holder",
          "type": "address"
        }
      ],
      "name": "balanceOf",
      "outputs": [
        {
          "internalType": "uint256",
          "name": "",
          "type": "uint256"
        }
      ],
      "stateMutability": "view",
      "type": "function"
    },
    {
      "inputs": [
        {
          "internalType": "uint256",
          "name": "clubId",
          "type": "uint256"
        },
        {
          "internalType": "uint256",
          "name": "amount",
          "type": "uint256"
        }
      ],
      "name": "directPurchase",
      "outputs": [],
      "stateMutability": "nonpayable",
      "type": "function"
    },
    {
      "inputs": [],
      "name": "fanToken",
      "outputs": [
        {
          "internalType": "contract IFanToken",
          "name": "",
          "type": "address"
        }
      ],
      "stateMutability": "view",
      "type": "function"
    },
    {
      "inputs": [
        {
          "internalType": "uint256",
          "name": "orderId",
          "type": "uint256"
        },
        {
          "internalType": "address",
          "name": "buyer",
          "type": "address"
        },
        {
          "internalType": "uint256",
          "name": "clubId",
          "type": "uint256"
        },
        {
          "internalType": "uint256",
          "name": "amount",
          "type": "uint256"
        },
        {
          "internalType": "uint256",
          "name": "deadline",
          "type": "uint256"
        },
        {
          "internalType": "bytes",
          "name": "orderSignature",
          "type": "bytes"
        },
        {
          "internalType": "uint8",
          "name": "v",
          "type": "uint8"
        },
        {
          "internalType": "bytes32",
          "name": "r",
          "type": "bytes32"
        },
        {
          "internalType": "bytes32",
          "name": "s",
          "type": "bytes32"
        }
      ],
      "name": "gaslessOrderPayment",
      "outputs": [],
      "stateMutability": "nonpayable",
      "type": "function"
    },
    {
      "inputs": [],
      "name": "getAllAcceptedTokens",
      "outputs": [
        {
          "internalType": "uint256[]",
          "name": "",
          "type": "uint256[]"
        }
      ],
      "stateMutability": "view",
      "type": "function"
    },
    {
      "inputs": [
        {
          "internalType": "uint256",
          "name": "clubId",
          "type": "uint256"
        }
      ],
      "name": "isTokenAccepted",
      "outputs": [
        {
          "internalType": "bool",
          "name": "",
          "type": "bool"
        }
      ],
      "stateMutability": "view",
      "type": "function"
    },
    {
      "inputs": [
        {
          "internalType": "uint256",
          "name": "orderId",
          "type": "uint256"
        },
        {
          "internalType": "uint256",
          "name": "clubId",
          "type": "uint256"
        },
        {
          "internalType": "uint256",
          "name": "amount",
          "type": "uint256"
        },
        {
          "internalType": "bytes",
          "name": "signature",
          "type": "bytes"
        }
      ],
      "name": "orderPayment",
      "outputs": [],
      "stateMutability": "nonpayable",
      "type": "function"
    },
    {
      "inputs": [],
      "name": "owner",
      "outputs": [
        {
          "internalType": "address",
          "name": "",
          "type": "address"
        }
      ],
      "stateMutability": "view",
      "type": "function"
    },
    {
      "inputs": [],
      "name": "renounceOwnership",
      "outputs": [],
      "stateMutability": "nonpayable",
      "type": "function"
    },
    {
      "inputs": [
        {
          "internalType": "address",
          "name": "_fanToken",
          "type": "address"
        }
      ],
      "name": "setFanToken",
      "outputs": [],
      "stateMutability": "nonpayable",
      "type": "function"
    },
    {
      "inputs": [
        {
          "internalType": "address",
          "name": "_signer",
          "type": "address"
        }
      ],
      "name": "setSigner",
      "outputs": [],
      "stateMutability": "nonpayable",
      "type": "function"
    },
    {
      "inputs": [
        {
          "internalType": "uint256",
          "name": "clubId",
          "type": "uint256"
        },
        {
          "internalType": "bool",
          "name": "accepted",
          "type": "bool"
        }
      ],
      "name": "setTokenAcceptance",
      "outputs": [],
      "stateMutability": "nonpayable",
      "type": "function"
    },
    {
      "inputs": [
        {
          "internalType": "address",
          "name": "_treasury",
          "type": "address"
        }
      ],
      "name": "setTreasury",
      "outputs": [],
      "stateMutability": "nonpayable",
      "type": "function"
    },
    {
      "inputs": [],
      "name": "signer",
      "outputs": [
        {
          "internalType": "address",
          "name": "",
          "type": "address"
        }
      ],
      "stateMutability": "view",
      "type": "function"
    },
    {
      "inputs": [
        {
          "internalType": "address",
          "name": "newOwner",
          "type": "address"
        }
      ],
      "name": "transferOwnership",
      "outputs": [],
      "stateMutability": "nonpayable",
      "type": "function"
    },
    {
      "inputs": [],
      "name": "treasury",
      "outputs": [
        {
          "internalType": "address",
          "name": "",
          "type": "address"
        }
      ],
      "stateMutability": "view",
      "type": "function"
    },
    {
      "inputs": [
        {
          "internalType": "uint256",
          "name": "",
          "type": "uint256"
        }
      ],
      "name": "usedNonces",
      "outputs": [
        {
          "internalType": "bool",
          "name": "",
          "type": "bool"
        }
      ],
      "stateMutability": "view",
      "type": "function"
    }
  ],
  "bytecode": "0x60806040523480156200001157600080fd5b5060405162001c1a38038062001c1a833981016040819052620000349162000176565b8133806200005d57604051631e4fbdf760e01b8152600060048201526024015b60405180910390fd5b620000688162000109565b506001600160a01b038116620000c15760405162461bcd60e51b815260206004820152601560248201527f46616e546f6b656e2061646472657373207a65726f0000000000000000000000604482015260640162000054565b600180546001600160a01b03199081166001600160a01b03938416179091556002805433908316811790915560038054831691909216179290911691909117905550620001ae565b600080546001600160a01b038381166001600160a01b0319831681178455604051919092169283917f8be0079c531659141344cd1fd0a4f28419497f9722a3daafe3b4186f6b6457e09190a35050565b80516001600160a01b03811681146200017157600080fd5b919050565b600080604083850312156200018a57600080fd5b620001958362000159565b9150620001a56020840162000159565b90509250929050565b611a5c80620001be6000396000f3fe608060405234801561001057600080fd5b50600436106101215760003560e01c80636717e41c116100ad5780639bc1838b116100715780639bc1838b14610290578063a42a202b146102a3578063ec20c81b146102b6578063f0f44260146102cb578063f2fde38b146102de57600080fd5b80636717e41c1461022e5780636c19e78314610251578063715018a61461026457806375daa3de1461026c5780638da5cb5b1461027f57600080fd5b806336c87754116100f457806336c87754146101bf578063455b569b146101e257806353ca5bbe146101f557806361d027b31461020857806365b7820a1461021b57600080fd5b80630450d8c6146101265780632216aec71461013b578063238ac933146101735780633656eec21461019e575b600080fd5b6101396101343660046114c5565b6102f1565b005b61015e6101493660046114f5565b60009081526005602052604090205460ff1690565b60405190151581526020015b60405180910390f35b600254610186906001600160a01b031681565b6040516001600160a01b03909116815260200161016a565b6101b16101ac36600461152a565b61052b565b60405190815260200161016a565b61015e6101cd3660046114f5565b60056020526000908152604090205460ff1681565b6101396101f0366004611556565b6105aa565b610139610203366004611571565b61061f565b600354610186906001600160a01b031681565b6101b16102293660046114f5565b610716565b61015e61023c3660046114f5565b60046020526000908152604090205460ff1681565b61013961025f366004611556565b610737565b6101396107ad565b600154610186906001600160a01b031681565b6000546001600160a01b0316610186565b61013961029e3660046115dc565b6107c1565b6101396102b1366004611685565b610c26565b6102be611036565b60405161016a91906116e6565b6101396102d9366004611556565b61108e565b6101396102ec366004611556565b611106565b6102f9611144565b60015460405163183c06e560e31b8152600481018490526000916001600160a01b03169063c1e0372890602401600060405180830381865afa158015610343573d6000803e3d6000fd5b505050506040513d6000823e601f3d908101601f1916820160405261036b91908101906117ec565b5050905060008151116103b85760405162461bcd60e51b815260206004820152601060248201526f546f6b656e206e616f2065786973746560801b60448201526064015b60405180910390fd5b60008381526005602052604090205482151560ff9091161515036103db57505050565b6000838152600560205260409020805460ff1916831580159190911790915561043857600680546001810182556000919091527ff652222313e28459528d920b65115c16c04f3efc82aaedc97be59f3f377c0d3f018390556104e9565b60005b6006548110156104e757836006828154811061045957610459611859565b9060005260206000200154036104df57600680546104799060019061186f565b8154811061048957610489611859565b9060005260206000200154600682815481106104a7576104a7611859565b60009182526020909120015560068054806104c4576104c4611890565b600190038181906000526020600020016000905590556104e7565b60010161043b565b505b827f76f41b873bd10bed9426e18bd543cdfcdb36e2f5fab429a9160df94e7e53bee08360405161051d911515815260200190565b60405180910390a2505b5050565b600154604051631b2b776160e11b8152600481018490526001600160a01b0383811660248301526000921690633656eec290604401602060405180830381865afa15801561057d573d6000803e3d6000fd5b505050506040513d601f19601f820116820180604052508101906105a191906118a6565b90505b92915050565b6105b2611144565b6001600160a01b0381166105fd5760405162461bcd60e51b8152602060048201526012602482015271546f6b656e2061646472657373207a65726f60701b60448201526064016103af565b600180546001600160a01b0319166001600160a01b0392909216919091179055565b60008281526005602052604090205460ff1661064d5760405162461bcd60e51b81526004016103af906118bf565b600154600354604051630e07895b60e11b8152600481018590523360248201526001600160a01b03918216604482015260648101849052911690631c0f12b6906084016020604051808303816000875af11580156106af573d6000803e3d6000fd5b505050506040513d601f19601f820116820180604052508101906106d391906118f6565b50604080518281526020810184905233916000917f3752d299ee850882ff779a81f3571c4d0952aec5f8fe5b833257fae354ee5c17910160405180910390a35050565b6006818154811061072657600080fd5b600091825260209091200154905081565b61073f611144565b6001600160a01b03811661078b5760405162461bcd60e51b81526020600482015260136024820152725369676e65722061646472657373207a65726f60681b60448201526064016103af565b600280546001600160a01b0319166001600160a01b0392909216919091179055565b6107b5611144565b6107bf6000611171565b565b60008a81526004602052604090205460ff16156108205760405162461bcd60e51b815260206004820152601a60248201527f507572636861736520616c72656164792070726f63657373656400000000000060448201526064016103af565b60008881526005602052604090205460ff1661084e5760405162461bcd60e51b81526004016103af906118bf565b8542111561089e5760405162461bcd60e51b815260206004820152601760248201527f4d6574612d7472616e736163616f20657870697261646100000000000000000060448201526064016103af565b6108dc6040518060400160405280601a81526020017f0a434f4e5452414354204741534c455353205041594d454e540a0000000000008152506111c1565b6109066040518060400160405280600881526020016727b93232b924b21d60c11b8152508b611204565b61092e60405180604001604052806006815260200165213abcb2b91d60d11b8152508a611249565b6109576040518060400160405280600781526020016621b63ab124b21d60c91b81525089611204565b6109806040518060400160405280600781526020016620b6b7bab73a1d60c91b81525088611204565b6109aa604051806040016040528060088152602001672932b630bcb2b91d60c11b81525033611249565b6109d5604051806040016040528060098152602001682232b0b23634b7329d60b91b81525087611204565b6109f66040518060600160405280602a81526020016119fd602a91396111c1565b60008a8a8a8a3046604051602001610a139695949392919061191a565b6040516020818303038152906040528051906020012090506000610a64827f19457468657265756d205369676e6564204d6573736167653a0a3332000000006000908152601c91909152603c902090565b90506000610aa88289898080601f01602080910402602001604051908101604052809392919081815260200183838082843760009201919091525061128e92505050565b6002549091506001600160a01b03808316911614610b085760405162461bcd60e51b815260206004820152601760248201527f496e76616c6964206f72646572207369676e617475726500000000000000000060448201526064016103af565b60015460035460405163783c82e960e01b8152600481018e90526001600160a01b038f811660248301529182166044820152606481018d9052608481018c905260ff891660a482015260c4810188905260e4810187905291169063783c82e990610104016020604051808303816000875af1158015610b8b573d6000803e3d6000fd5b505050506040513d601f19601f82011682018060405250810190610baf91906118f6565b5060008d815260046020908152604091829020805460ff1916600117905581518c81529081018d9052338183015290516001600160a01b038e16918f917f279f98f2e35255bee2af0e07e5deabf5f9c4fbcf15ce4a6bb4cb38680f17c8cb916060908290030190a350505050505050505050505050565b60008581526004602052604090205460ff1615610c855760405162461bcd60e51b815260206004820152601a60248201527f507572636861736520616c72656164792070726f63657373656400000000000060448201526064016103af565b60008481526005602052604090205460ff16610cb35760405162461bcd60e51b81526004016103af906118bf565b610ce6604051806040016040528060128152602001710521a7a72a2920a1aa102820aca6a2a72a0560711b8152506111c1565b610d106040518060400160405280600881526020016727b93232b924b21d60c11b81525086611204565b610d3860405180604001604052806006815260200165213abcb2b91d60d11b81525033611249565b610d616040518060400160405280600781526020016621b63ab124b21d60c91b81525085611204565b610d8a6040518060400160405280600781526020016620b6b7bab73a1d60c91b81525084611204565b610dbd6040518060400160405280601181526020017021b7b73a3930b1ba1020b2323932b9b99d60791b81525030611249565b610de76040518060400160405280600881526020016721b430b4b724b21d60c11b81525046611204565b60408051808201909152600f81526e29b4b3b732b91020b2323932b9b99d60891b6020820152600254610e2391906001600160a01b0316611249565b610e446040518060600160405280602a81526020016119fd602a91396111c1565b6000853386863046604051602001610e619695949392919061191a565b6040516020818303038152906040528051906020012090506000610eb2827f19457468657265756d205369676e6564204d6573736167653a0a3332000000006000908152601c91909152603c902090565b90506000610ef68286868080601f01602080910402602001604051908101604052809392919081815260200183838082843760009201919091525061128e92505050565b6002549091506001600160a01b03808316911614610f4a5760405162461bcd60e51b8152602060048201526011602482015270496e76616c6964207369676e617475726560781b60448201526064016103af565b600088815260046020819052604091829020805460ff19166001908117909155546003549251630e07895b60e11b81529182018a90523360248301526001600160a01b039283166044830152606482018990529190911690631c0f12b6906084016020604051808303816000875af1158015610fca573d6000803e3d6000fd5b505050506040513d601f19601f82011682018060405250810190610fee91906118f6565b50604080518781526020810189905233918a917f3752d299ee850882ff779a81f3571c4d0952aec5f8fe5b833257fae354ee5c17910160405180910390a35050505050505050565b6060600680548060200260200160405190810160405280929190818152602001828054801561108457602002820191906000526020600020905b815481526020019060010190808311611070575b5050505050905090565b611096611144565b6001600160a01b0381166110e45760405162461bcd60e51b815260206004820152601560248201527454726561737572792061646472657373207a65726f60581b60448201526064016103af565b600380546001600160a01b0319166001600160a01b0392909216919091179055565b61110e611144565b6001600160a01b03811661113857604051631e4fbdf760e01b8152600060048201526024016103af565b61114181611171565b50565b6000546001600160a01b031633146107bf5760405163118cdaa760e01b81523360048201526024016103af565b600080546001600160a01b038381166001600160a01b0319831681178455604051919092169283917f8be0079c531659141344cd1fd0a4f28419497f9722a3daafe3b4186f6b6457e09190a35050565b611141816040516024016111d59190611987565b60408051601f198184030181529190526020810180516001600160e01b031663104c13eb60e21b1790526112b8565b610527828260405160240161121a92919061199a565b60408051601f198184030181529190526020810180516001600160e01b0316632d839cb360e21b1790526112b8565b610527828260405160240161125f9291906119bc565b60408051601f198184030181529190526020810180516001600160e01b031663319af33360e01b1790526112b8565b60008060008061129e86866112c1565b9250925092506112ae828261130e565b5090949350505050565b611141816113c7565b600080600083516041036112fb5760208401516040850151606086015160001a6112ed888285856113e8565b955095509550505050611307565b50508151600091506002905b9250925092565b6000826003811115611322576113226119e6565b0361132b575050565b600182600381111561133f5761133f6119e6565b0361135d5760405163f645eedf60e01b815260040160405180910390fd5b6002826003811115611371576113716119e6565b036113925760405163fce698f760e01b8152600481018290526024016103af565b60038260038111156113a6576113a66119e6565b03610527576040516335e2f38360e21b8152600481018290526024016103af565b60006a636f6e736f6c652e6c6f679050600080835160208501845afa505050565b600080807f7fffffffffffffffffffffffffffffff5d576e7357a4501ddfe92f46681b20a084111561142357506000915060039050826114ad565b604080516000808252602082018084528a905260ff891692820192909252606081018790526080810186905260019060a0016020604051602081039080840390855afa158015611477573d6000803e3d6000fd5b5050604051601f1901519150506001600160a01b0381166114a3575060009250600191508290506114ad565b9250600091508190505b9450945094915050565b801515811461114157600080fd5b600080604083850312156114d857600080fd5b8235915060208301356114ea816114b7565b809150509250929050565b60006020828403121561150757600080fd5b5035919050565b80356001600160a01b038116811461152557600080fd5b919050565b6000806040838503121561153d57600080fd5b8235915061154d6020840161150e565b90509250929050565b60006020828403121561156857600080fd5b6105a18261150e565b6000806040838503121561158457600080fd5b50508035926020909101359150565b60008083601f8401126115a557600080fd5b50813567ffffffffffffffff8111156115bd57600080fd5b6020830191508360208285010111156115d557600080fd5b9250929050565b6000806000806000806000806000806101208b8d0312156115fc57600080fd5b8a35995061160c60208c0161150e565b985060408b0135975060608b0135965060808b0135955060a08b013567ffffffffffffffff81111561163d57600080fd5b6116498d828e01611593565b90965094505060c08b013560ff8116811461166357600080fd5b8093505060e08b013591506101008b013590509295989b9194979a5092959850565b60008060008060006080868803121561169d57600080fd5b853594506020860135935060408601359250606086013567ffffffffffffffff8111156116c957600080fd5b6116d588828901611593565b969995985093965092949392505050565b6020808252825182820181905260009190848201906040850190845b8181101561171e57835183529284019291840191600101611702565b50909695505050505050565b634e487b7160e01b600052604160045260246000fd5b60005b8381101561175b578181015183820152602001611743565b50506000910152565b600082601f83011261177557600080fd5b815167ffffffffffffffff808211156117905761179061172a565b604051601f8301601f19908116603f011681019082821181831017156117b8576117b861172a565b816040528381528660208588010111156117d157600080fd5b6117e2846020830160208901611740565b9695505050505050565b60008060006060848603121561180157600080fd5b835167ffffffffffffffff8082111561181957600080fd5b61182587838801611764565b9450602086015191508082111561183b57600080fd5b5061184886828701611764565b925050604084015190509250925092565b634e487b7160e01b600052603260045260246000fd5b818103818111156105a457634e487b7160e01b600052601160045260246000fd5b634e487b7160e01b600052603160045260246000fd5b6000602082840312156118b857600080fd5b5051919050565b6020808252601f908201527f546f6b656e206e616f2061636569746f207061726120706167616d656e746f00604082015260600190565b60006020828403121561190857600080fd5b8151611913816114b7565b9392505050565b9586526bffffffffffffffffffffffff19606095861b811660208801526034870194909452605486019290925290921b166074830152608882015260a80190565b60008151808452611973816020860160208601611740565b601f01601f19169290920160200192915050565b6020815260006105a1602083018461195b565b6040815260006119ad604083018561195b565b90508260208301529392505050565b6040815260006119cf604083018561195b565b905060018060a01b03831660208301529392505050565b634e487b7160e01b600052602160045260246000fdfe0a3d3d3d3d3d3d3d3d3d3d3d3d3d3d3d3d3d3d3d3d3d3d3d3d3d3d3d3d3d3d3d3d3d3d3d3d3d3d3d3d0aa26469706673582212203928d243a9b3a858ac05ae9c8f54285a8eabe51a9b476ca71c380e92130c711e64736f6c63430008180033",
  "linkReferences": {},
  "deployedLinkReferences": {}
}