{
  "_format": "hh-sol-artifact-1",
  "contractName": "Fanatique",
  "sourceName": "contracts/Fanatique.sol",
  "abi": [
    {
      "inputs": [
        {
          "internalType": "address",
          "name": "_treasury",
          "type": "address"
        }
      ],
      "stateMutability": "nonpayable",
      "type": "constructor"
    },
    {
      "inputs": [],
      "name": "ECDSAInvalidSignature",
      "type": "error"
    },
    {
      "inputs": [
        {
          "internalType": "uint256",
          "name": "length",
          "type": "uint256"
        }
      ],
      "name": "ECDSAInvalidSignatureLength",
      "type": "error"
    },
    {
      "inputs": [
        {
          "internalType": "bytes32",
          "name": "s",
          "type": "bytes32"
        }
      ],
      "name": "ECDSAInvalidSignatureS",
      "type": "error"
    },
    {
      "inputs": [
        {
          "internalType": "address",
          "name": "owner",
          "type": "address"
        }
      ],
      "name": "OwnableInvalidOwner",
      "type": "error"
    },
    {
      "inputs": [
        {
          "internalType": "address",
          "name": "account",
          "type": "address"
        }
      ],
      "name": "OwnableUnauthorizedAccount",
      "type": "error"
    },
    {
      "anonymous": false,
      "inputs": [
        {
          "indexed": true,
          "internalType": "address",
          "name": "previousOwner",
          "type": "address"
        },
        {
          "indexed": true,
          "internalType": "address",
          "name": "newOwner",
          "type": "address"
        }
      ],
      "name": "OwnershipTransferred",
      "type": "event"
    },
    {
      "anonymous": false,
      "inputs": [
        {
          "indexed": true,
          "internalType": "uint256",
          "name": "orderId",
          "type": "uint256"
        },
        {
          "indexed": true,
          "internalType": "address",
          "name": "buyer",
          "type": "address"
        },
        {
          "indexed": false,
          "internalType": "uint256",
          "name": "amount",
          "type": "uint256"
        }
      ],
      "name": "PaymentProcessed",
      "type": "event"
    },
    {
      "anonymous": false,
      "inputs": [
        {
          "indexed": true,
          "internalType": "address",
          "name": "tokenAddress",
          "type": "address"
        },
        {
          "indexed": true,
          "internalType": "uint256",
          "name": "tokenId",
          "type": "uint256"
        },
        {
          "indexed": false,
          "internalType": "bool",
          "name": "accepted",
          "type": "bool"
        }
      ],
      "name": "TokenStatusUpdated",
      "type": "event"
    },
    {
      "inputs": [
        {
          "internalType": "uint256",
          "name": "",
          "type": "uint256"
        }
      ],
      "name": "acceptedTokens",
      "outputs": [
        {
          "internalType": "bool",
          "name": "",
          "type": "bool"
        }
      ],
      "stateMutability": "view",
      "type": "function"
    },
    {
      "inputs": [
        {
          "components": [
            {
              "internalType": "uint256",
              "name": "orderId",
              "type": "uint256"
            },
            {
              "internalType": "address",
              "name": "buyer",
              "type": "address"
            },
            {
              "internalType": "uint256",
              "name": "amount",
              "type": "uint256"
            },
            {
              "internalType": "uint256",
              "name": "deadline",
              "type": "uint256"
            },
            {
              "internalType": "uint256",
              "name": "erc20Id",
              "type": "uint256"
            }
          ],
          "internalType": "struct Payment.PaymentData",
          "name": "payment",
          "type": "tuple"
        },
        {
          "internalType": "bytes",
          "name": "orderSignature",
          "type": "bytes"
        },
        {
          "components": [
            {
              "internalType": "uint8",
              "name": "v",
              "type": "uint8"
            },
            {
              "internalType": "bytes32",
              "name": "r",
              "type": "bytes32"
            },
            {
              "internalType": "bytes32",
              "name": "s",
              "type": "bytes32"
            },
            {
              "internalType": "uint256",
              "name": "deadline",
              "type": "uint256"
            }
          ],
          "internalType": "struct Payment.PermitData",
          "name": "permit",
          "type": "tuple"
        }
      ],
      "name": "orderPaymentWithPermit",
      "outputs": [],
      "stateMutability": "nonpayable",
      "type": "function"
    },
    {
      "inputs": [],
      "name": "owner",
      "outputs": [
        {
          "internalType": "address",
          "name": "",
          "type": "address"
        }
      ],
      "stateMutability": "view",
      "type": "function"
    },
    {
      "inputs": [],
      "name": "renounceOwnership",
      "outputs": [],
      "stateMutability": "nonpayable",
      "type": "function"
    },
    {
      "inputs": [
        {
          "internalType": "address",
          "name": "tokenAddress",
          "type": "address"
        },
        {
          "internalType": "uint256",
          "name": "amount",
          "type": "uint256"
        }
      ],
      "name": "rescueTokens",
      "outputs": [],
      "stateMutability": "nonpayable",
      "type": "function"
    },
    {
      "inputs": [
        {
          "internalType": "uint256",
          "name": "tokenId",
          "type": "uint256"
        },
        {
          "internalType": "address",
          "name": "tokenAddress",
          "type": "address"
        },
        {
          "internalType": "bool",
          "name": "supportsPermit",
          "type": "bool"
        },
        {
          "internalType": "bool",
          "name": "accepted",
          "type": "bool"
        }
      ],
      "name": "setAcceptedToken",
      "outputs": [],
      "stateMutability": "nonpayable",
      "type": "function"
    },
    {
      "inputs": [
        {
          "internalType": "address",
          "name": "_treasury",
          "type": "address"
        }
      ],
      "name": "setTreasury",
      "outputs": [],
      "stateMutability": "nonpayable",
      "type": "function"
    },
    {
      "inputs": [
        {
          "internalType": "uint256",
          "name": "",
          "type": "uint256"
        }
      ],
      "name": "tokenAddresses",
      "outputs": [
        {
          "internalType": "address",
          "name": "",
          "type": "address"
        }
      ],
      "stateMutability": "view",
      "type": "function"
    },
    {
      "inputs": [
        {
          "internalType": "uint256",
          "name": "",
          "type": "uint256"
        }
      ],
      "name": "tokenSupportsPermit",
      "outputs": [
        {
          "internalType": "bool",
          "name": "",
          "type": "bool"
        }
      ],
      "stateMutability": "view",
      "type": "function"
    },
    {
      "inputs": [
        {
          "internalType": "address",
          "name": "newOwner",
          "type": "address"
        }
      ],
      "name": "transferOwnership",
      "outputs": [],
      "stateMutability": "nonpayable",
      "type": "function"
    },
    {
      "inputs": [],
      "name": "treasury",
      "outputs": [
        {
          "internalType": "address",
          "name": "",
          "type": "address"
        }
      ],
      "stateMutability": "view",
      "type": "function"
    }
  ],
  "bytecode": "0x6080346100cb57601f610e1b38819003918201601f19168301916001600160401b038311848410176100d0578084926020946040528339810103126100cb57516001600160a01b0390818116908190036100cb5733156100b25760005460018060a01b0319903382821617600055604051933391167f8be0079c531659141344cd1fd0a4f28419497f9722a3daafe3b4186f6b6457e0600080a380600154169033161717600155610d3490816100e78239f35b604051631e4fbdf760e01b815260006004820152602490fd5b600080fd5b634e487b7160e01b600052604160045260246000fdfe608080604052600436101561001357600080fd5b600090813560e01c90816336c8775414610a4957508063573761981461096957806361d027b314610940578063715018a6146108e657806383f72816146107b85780638da5cb5b14610791578063b21d1cad14610209578063b37b9f0e146101da578063e5df8b84146101a7578063f0f44260146101275763f2fde38b1461009a57600080fd5b34610124576020366003190112610124576100b3610a75565b6100bb610b81565b6001600160a01b0390811690811561010b57600054826001600160601b0360a01b821617600055167f8be0079c531659141344cd1fd0a4f28419497f9722a3daafe3b4186f6b6457e0600080a380f35b604051631e4fbdf760e01b815260048101849052602490fd5b80fd5b503461012457602036600319011261012457610141610a75565b610149610b81565b6001600160a01b0316801561016e576001600160601b0360a01b600154161760015580f35b60405162461bcd60e51b8152602060048201526011602482015270456e64657265636f20696e76616c69646f60781b6044820152606490fd5b503461012457602036600319011261012457602090600435815260038252604060018060a01b0391205416604051908152f35b50346101245760203660031901126101245760ff60406020926004358152600484522054166040519015158152f35b5034610124573660031901610140811261078d5760a0136101245760a43567ffffffffffffffff811161078d573660238201121561078d5780600401359067ffffffffffffffff82116107895736602483830101116107895760803660c319011261078957606435421161074f57610124359182421161071857608435610291811515610ae0565b808552600260205260ff604086205416156106d3578452600460205260ff6040852054161561068e576102c336610b1f565b9182519160208401936040855191015160405191602083019586526001600160601b03199060601b16604083015260548201523060601b60748201524660888201526088815260c081019381851067ffffffffffffffff86111761067a5760e0859361038a95938a936103939998604052815190207f19457468657265756d205369676e6564204d6573736167653a0a3332000000008552601c52816024603c86209661037a6020601f19601f860116018a610a90565b8289520184830137010152610bad565b90939193610be9565b516001600160a01b03908116911603610635576103af36610b1f565b90604051906080820182811067ffffffffffffffff8211176106215760405260c43560ff8116810361061d578252602082019160e435835260408101916101043583526060820190815260808501518652600360205260018060a01b036040872054169283156105e057602086019460018060a01b038651169360ff604089015194519151169151925193863b156105dc576040519563d505accf60e01b8752600487015230602487015260448601526064850152608484015260a483015260c4820152848160e48183865af180156105d1576105a1575b50815160015460408581015190516323b872dd60e01b81526001600160a01b0393841660048201529290911660248301526044820152906020908290606490829088905af1908115610596578491610567575b5015610522578151905160409283015192519283526001600160a01b0316917f354a7e09d58acfc69c01f51ad9c6b43c46501b660e7790d744ee8421936e3d3b90602090a380f35b60405162461bcd60e51b815260206004820152601f60248201527f46616c6861206e61207472616e73666572656e63696120646520746f6b656e006044820152606490fd5b610589915060203d60201161058f575b6105818183610a90565b810190610ac8565b386104da565b503d610577565b6040513d86823e3d90fd5b67ffffffffffffffff81959295116105bd576040529238610487565b634e487b7160e01b82526041600452602482fd5b6040513d87823e3d90fd5b8980fd5b60405162461bcd60e51b8152602060048201526015602482015274546f6b656e206e616f20636f6e666967757261646f60581b6044820152606490fd5b8480fd5b634e487b7160e01b85526041600452602485fd5b60405162461bcd60e51b815260206004820152601c60248201527f417373696e6174757261206465206f7264656d20696e76616c696461000000006044820152606490fd5b634e487b7160e01b88526041600452602488fd5b60405162461bcd60e51b815260206004820152601860248201527f546f6b656e206e616f207375706f727461207065726d697400000000000000006044820152606490fd5b60405162461bcd60e51b815260206004820152601f60248201527f546f6b656e206e616f2061636569746f207061726120706167616d656e746f006044820152606490fd5b60405162461bcd60e51b815260206004820152600f60248201526e7065726d697420657870697261646f60881b6044820152606490fd5b60405162461bcd60e51b81526020600482015260126024820152717472616e736163616f20657870697261646160701b6044820152606490fd5b8280fd5b5080fd5b5034610124578060031936011261012457546040516001600160a01b039091168152602090f35b5034610124576080366003190112610124576004356024356001600160a01b038116908190036107895760443580151581036108e257606435908115158083036108de57610804610b81565b61080f851515610ae0565b83156108995761088f60209261085c7faf9df636ed1eead780c4c5eb1eabadb590431cbadae0282a5a441d9bfe1ae58b95888a526002865260408a209060ff801983541691151516179055565b6003845260408820866001600160601b0360a01b82541617905560048452604088209060ff801983541691151516179055565b604051908152a380f35b60405162461bcd60e51b815260206004820152601a60248201527f456e64657265636f20646520746f6b656e20696e76616c69646f0000000000006044820152606490fd5b8580fd5b8380fd5b50346101245780600319360112610124576108ff610b81565b80546001600160a01b03198116825581906001600160a01b03167f8be0079c531659141344cd1fd0a4f28419497f9722a3daafe3b4186f6b6457e08280a380f35b50346101245780600319360112610124576001546040516001600160a01b039091168152602090f35b503461012457604036600319011261012457610983610a75565b61098b610b81565b60015460405163a9059cbb60e01b81526001600160a01b039182166004820152602480359082015291602091839160449183918791165af1908115610a3e578291610a1f575b50156109da5780f35b60405162461bcd60e51b815260206004820152601a60248201527f46616c6861206e6f207265736761746520646520746f6b656e730000000000006044820152606490fd5b610a38915060203d60201161058f576105818183610a90565b386109d1565b6040513d84823e3d90fd5b90503461078d57602036600319011261078d5760ff604060209360043581526002855220541615158152f35b600435906001600160a01b0382168203610a8b57565b600080fd5b90601f8019910116810190811067ffffffffffffffff821117610ab257604052565b634e487b7160e01b600052604160045260246000fd5b90816020910312610a8b57518015158103610a8b5790565b15610ae757565b60405162461bcd60e51b815260206004820152601060248201526f546f6b656e496420696e76616c69646f60801b6044820152606490fd5b60a0906003190112610a8b576040519060a0820182811067ffffffffffffffff821117610ab2576040526004358252816024356001600160a01b0381168103610a8b576020820152604435604082015260643560608201526080608435910152565b6000546001600160a01b03163303610b9557565b60405163118cdaa760e01b8152336004820152602490fd5b8151919060418303610bde57610bd792506020820151906060604084015193015160001a90610c6e565b9192909190565b505060009160029190565b6004811015610c585780610bfb575050565b60018103610c155760405163f645eedf60e01b8152600490fd5b60028103610c365760405163fce698f760e01b815260048101839052602490fd5b600314610c405750565b602490604051906335e2f38360e21b82526004820152fd5b634e487b7160e01b600052602160045260246000fd5b91907f7fffffffffffffffffffffffffffffff5d576e7357a4501ddfe92f46681b20a08411610cf257926020929160ff608095604051948552168484015260408301526060820152600092839182805260015afa15610ce65780516001600160a01b03811615610cdd57918190565b50809160019190565b604051903d90823e3d90fd5b5050506000916003919056fea2646970667358221220e2eca1ae87c422cfd8d8a70ab6c8d1651b4a07009347642c4bf5b360e3ab72b064736f6c63430008180033",
  "linkReferences": {},
  "deployedLinkReferences": {}
}