{
  "_format": "hh-sol-artifact-1",
  "contractName": "Fanatique",
  "sourceName": "contracts/Fanatique.sol",
  "abi": [
    {
      "inputs": [
        {
          "internalType": "address",
          "name": "_treasury",
          "type": "address"
        }
      ],
      "stateMutability": "nonpayable",
      "type": "constructor"
    },
    {
      "inputs": [],
      "name": "ECDSAInvalidSignature",
      "type": "error"
    },
    {
      "inputs": [
        {
          "internalType": "uint256",
          "name": "length",
          "type": "uint256"
        }
      ],
      "name": "ECDSAInvalidSignatureLength",
      "type": "error"
    },
    {
      "inputs": [
        {
          "internalType": "bytes32",
          "name": "s",
          "type": "bytes32"
        }
      ],
      "name": "ECDSAInvalidSignatureS",
      "type": "error"
    },
    {
      "inputs": [
        {
          "internalType": "address",
          "name": "owner",
          "type": "address"
        }
      ],
      "name": "OwnableInvalidOwner",
      "type": "error"
    },
    {
      "inputs": [
        {
          "internalType": "address",
          "name": "account",
          "type": "address"
        }
      ],
      "name": "OwnableUnauthorizedAccount",
      "type": "error"
    },
    {
      "anonymous": false,
      "inputs": [
        {
          "indexed": true,
          "internalType": "address",
          "name": "previousOwner",
          "type": "address"
        },
        {
          "indexed": true,
          "internalType": "address",
          "name": "newOwner",
          "type": "address"
        }
      ],
      "name": "OwnershipTransferred",
      "type": "event"
    },
    {
      "anonymous": false,
      "inputs": [
        {
          "indexed": true,
          "internalType": "uint256",
          "name": "orderId",
          "type": "uint256"
        },
        {
          "indexed": true,
          "internalType": "address",
          "name": "buyer",
          "type": "address"
        },
        {
          "indexed": false,
          "internalType": "uint256",
          "name": "amount",
          "type": "uint256"
        },
        {
          "indexed": false,
          "internalType": "uint256",
          "name": "clubId",
          "type": "uint256"
        }
      ],
      "name": "PaymentProcessed",
      "type": "event"
    },
    {
      "anonymous": false,
      "inputs": [
        {
          "indexed": true,
          "internalType": "address",
          "name": "tokenAddress",
          "type": "address"
        },
        {
          "indexed": true,
          "internalType": "uint256",
          "name": "tokenId",
          "type": "uint256"
        },
        {
          "indexed": false,
          "internalType": "bool",
          "name": "accepted",
          "type": "bool"
        }
      ],
      "name": "TokenStatusUpdated",
      "type": "event"
    },
    {
      "inputs": [
        {
          "internalType": "uint256",
          "name": "",
          "type": "uint256"
        }
      ],
      "name": "acceptedTokens",
      "outputs": [
        {
          "internalType": "bool",
          "name": "",
          "type": "bool"
        }
      ],
      "stateMutability": "view",
      "type": "function"
    },
    {
      "inputs": [
        {
          "internalType": "uint256",
          "name": "",
          "type": "uint256"
        }
      ],
      "name": "orderClubId",
      "outputs": [
        {
          "internalType": "uint256",
          "name": "",
          "type": "uint256"
        }
      ],
      "stateMutability": "view",
      "type": "function"
    },
    {
      "inputs": [
        {
          "components": [
            {
              "internalType": "uint256",
              "name": "orderId",
              "type": "uint256"
            },
            {
              "internalType": "address",
              "name": "buyer",
              "type": "address"
            },
            {
              "internalType": "uint256",
              "name": "amount",
              "type": "uint256"
            },
            {
              "internalType": "uint256",
              "name": "deadline",
              "type": "uint256"
            },
            {
              "internalType": "uint256",
              "name": "erc20Id",
              "type": "uint256"
            },
            {
              "internalType": "uint256",
              "name": "clubId",
              "type": "uint256"
            }
          ],
          "internalType": "struct Payment.PaymentData",
          "name": "payment",
          "type": "tuple"
        },
        {
          "internalType": "bytes",
          "name": "orderSignature",
          "type": "bytes"
        },
        {
          "components": [
            {
              "internalType": "uint8",
              "name": "v",
              "type": "uint8"
            },
            {
              "internalType": "bytes32",
              "name": "r",
              "type": "bytes32"
            },
            {
              "internalType": "bytes32",
              "name": "s",
              "type": "bytes32"
            },
            {
              "internalType": "uint256",
              "name": "deadline",
              "type": "uint256"
            }
          ],
          "internalType": "struct Payment.PermitData",
          "name": "permit",
          "type": "tuple"
        }
      ],
      "name": "orderPaymentWithPermit",
      "outputs": [],
      "stateMutability": "nonpayable",
      "type": "function"
    },
    {
      "inputs": [],
      "name": "owner",
      "outputs": [
        {
          "internalType": "address",
          "name": "",
          "type": "address"
        }
      ],
      "stateMutability": "view",
      "type": "function"
    },
    {
      "inputs": [],
      "name": "renounceOwnership",
      "outputs": [],
      "stateMutability": "nonpayable",
      "type": "function"
    },
    {
      "inputs": [
        {
          "internalType": "address",
          "name": "tokenAddress",
          "type": "address"
        },
        {
          "internalType": "uint256",
          "name": "amount",
          "type": "uint256"
        }
      ],
      "name": "rescueTokens",
      "outputs": [],
      "stateMutability": "nonpayable",
      "type": "function"
    },
    {
      "inputs": [
        {
          "internalType": "uint256",
          "name": "tokenId",
          "type": "uint256"
        },
        {
          "internalType": "address",
          "name": "tokenAddress",
          "type": "address"
        },
        {
          "internalType": "bool",
          "name": "supportsPermit",
          "type": "bool"
        },
        {
          "internalType": "bool",
          "name": "accepted",
          "type": "bool"
        }
      ],
      "name": "setAcceptedToken",
      "outputs": [],
      "stateMutability": "nonpayable",
      "type": "function"
    },
    {
      "inputs": [
        {
          "internalType": "uint256",
          "name": "orderId",
          "type": "uint256"
        },
        {
          "internalType": "uint256",
          "name": "clubId",
          "type": "uint256"
        }
      ],
      "name": "setOrderClubId",
      "outputs": [],
      "stateMutability": "nonpayable",
      "type": "function"
    },
    {
      "inputs": [
        {
          "internalType": "address",
          "name": "_treasury",
          "type": "address"
        }
      ],
      "name": "setTreasury",
      "outputs": [],
      "stateMutability": "nonpayable",
      "type": "function"
    },
    {
      "inputs": [
        {
          "internalType": "uint256",
          "name": "",
          "type": "uint256"
        }
      ],
      "name": "tokenAddresses",
      "outputs": [
        {
          "internalType": "address",
          "name": "",
          "type": "address"
        }
      ],
      "stateMutability": "view",
      "type": "function"
    },
    {
      "inputs": [
        {
          "internalType": "uint256",
          "name": "",
          "type": "uint256"
        }
      ],
      "name": "tokenSupportsPermit",
      "outputs": [
        {
          "internalType": "bool",
          "name": "",
          "type": "bool"
        }
      ],
      "stateMutability": "view",
      "type": "function"
    },
    {
      "inputs": [
        {
          "internalType": "address",
          "name": "newOwner",
          "type": "address"
        }
      ],
      "name": "transferOwnership",
      "outputs": [],
      "stateMutability": "nonpayable",
      "type": "function"
    },
    {
      "inputs": [],
      "name": "treasury",
      "outputs": [
        {
          "internalType": "address",
          "name": "",
          "type": "address"
        }
      ],
      "stateMutability": "view",
      "type": "function"
    }
  ],
  "bytecode": "0x6080346100cb57601f610e8e38819003918201601f19168301916001600160401b038311848410176100d0578084926020946040528339810103126100cb57516001600160a01b0390818116908190036100cb5733156100b25760005460018060a01b0319903382821617600055604051933391167f8be0079c531659141344cd1fd0a4f28419497f9722a3daafe3b4186f6b6457e0600080a380600154169033161717600155610da790816100e78239f35b604051631e4fbdf760e01b815260006004820152602490fd5b600080fd5b634e487b7160e01b600052604160045260246000fdfe608080604052600436101561001357600080fd5b600090813560e01c90816336c8775414610aa95750806352c026a014610a7a578063573761981461099a57806361d027b314610971578063715018a61461091757806383f72816146107e95780638da5cb5b146107c2578063b30515fd14610249578063b37b9f0e1461021a578063e5df8b84146101e7578063ec00dbe1146101bd578063f0f442601461013d5763f2fde38b146100b057600080fd5b3461013a57602036600319011261013a576100c9610ad5565b6100d1610bf4565b6001600160a01b0390811690811561012157600054826001600160601b0360a01b821617600055167f8be0079c531659141344cd1fd0a4f28419497f9722a3daafe3b4186f6b6457e0600080a380f35b604051631e4fbdf760e01b815260048101849052602490fd5b80fd5b503461013a57602036600319011261013a57610157610ad5565b61015f610bf4565b6001600160a01b03168015610184576001600160601b0360a01b600154161760015580f35b60405162461bcd60e51b8152602060048201526011602482015270456e64657265636f20696e76616c69646f60781b6044820152606490fd5b503461013a57602036600319011261013a5760406020916004358152600483522054604051908152f35b503461013a57602036600319011261013a57602090600435815260038252604060018060a01b0391205416604051908152f35b503461013a57602036600319011261013a5760ff60406020926004358152600584522054166040519015158152f35b503461013a57366003190161016081126107be5760c01361013a5760c43567ffffffffffffffff81116107be57366023820112156107be5780600401359067ffffffffffffffff82116107ba5736602483830101116107ba5760803660e31901126107ba576064354211610780576101443591824211610749576084356102d1811515610b5c565b808552600260205260ff60408620541615610704578452600560205260ff604085205416156106bf576103b46103bd9261030a36610b9b565b92835160208501946040865191015160405191602083019384526001600160601b03199060601b16604083015260548201523060601b60748201524660888201526088815261035881610af0565b5190207f19457468657265756d205369676e6564204d6573736167653a0a3332000000008852601c52866020603c822092806024604051966103a385601f19601f8601160189610b22565b828852018387013784010152610c20565b90939193610c5c565b516001600160a01b0390811691160361067a576103d936610b9b565b9060043583526004602052604083205460a0830152604051906080820182811067ffffffffffffffff8211176106665760405260e43560ff81168103610662578252602082019161010435835260408101916101243583526060820190815260808501518652600360205260018060a01b0360408720541692831561062557602086019460018060a01b038651169360ff604089015194519151169151925193863b15610621576040519563d505accf60e01b8752600487015230602487015260448601526064850152608484015260a483015260c4820152848160e48183865af18015610616576105e6575b50815160015460408581015190516323b872dd60e01b81526001600160a01b0393841660048201529290911660248301526044820152906020908290606490829088905af19081156105db5784916105ac575b5015610567577f3752d299ee850882ff779a81f3571c4d0952aec5f8fe5b833257fae354ee5c17604083519260018060a01b039051169360a08282015191015182519182526020820152a380f35b60405162461bcd60e51b815260206004820152601f60248201527f46616c6861206e61207472616e73666572656e63696120646520746f6b656e006044820152606490fd5b6105ce915060203d6020116105d4575b6105c68183610b22565b810190610b44565b38610519565b503d6105bc565b6040513d86823e3d90fd5b67ffffffffffffffff81959295116106025760405292386104c6565b634e487b7160e01b82526041600452602482fd5b6040513d87823e3d90fd5b8980fd5b60405162461bcd60e51b8152602060048201526015602482015274546f6b656e206e616f20636f6e666967757261646f60581b6044820152606490fd5b8480fd5b634e487b7160e01b85526041600452602485fd5b60405162461bcd60e51b815260206004820152601c60248201527f417373696e6174757261206465206f7264656d20696e76616c696461000000006044820152606490fd5b60405162461bcd60e51b815260206004820152601860248201527f546f6b656e206e616f207375706f727461207065726d697400000000000000006044820152606490fd5b60405162461bcd60e51b815260206004820152601f60248201527f546f6b656e206e616f2061636569746f207061726120706167616d656e746f006044820152606490fd5b60405162461bcd60e51b815260206004820152600f60248201526e7065726d697420657870697261646f60881b6044820152606490fd5b60405162461bcd60e51b81526020600482015260126024820152717472616e736163616f20657870697261646160701b6044820152606490fd5b8280fd5b5080fd5b503461013a578060031936011261013a57546040516001600160a01b039091168152602090f35b503461013a57608036600319011261013a576004356024356001600160a01b038116908190036107ba576044358015158103610913576064359081151580830361090f57610835610bf4565b610840851515610b5c565b83156108ca576108c060209261088d7faf9df636ed1eead780c4c5eb1eabadb590431cbadae0282a5a441d9bfe1ae58b95888a526002865260408a209060ff801983541691151516179055565b6003845260408820866001600160601b0360a01b82541617905560058452604088209060ff801983541691151516179055565b604051908152a380f35b60405162461bcd60e51b815260206004820152601a60248201527f456e64657265636f20646520746f6b656e20696e76616c69646f0000000000006044820152606490fd5b8580fd5b8380fd5b503461013a578060031936011261013a57610930610bf4565b80546001600160a01b03198116825581906001600160a01b03167f8be0079c531659141344cd1fd0a4f28419497f9722a3daafe3b4186f6b6457e08280a380f35b503461013a578060031936011261013a576001546040516001600160a01b039091168152602090f35b503461013a57604036600319011261013a576109b4610ad5565b6109bc610bf4565b60015460405163a9059cbb60e01b81526001600160a01b039182166004820152602480359082015291602091839160449183918791165af1908115610a6f578291610a50575b5015610a0b5780f35b60405162461bcd60e51b815260206004820152601a60248201527f46616c6861206e6f207265736761746520646520746f6b656e730000000000006044820152606490fd5b610a69915060203d6020116105d4576105c68183610b22565b38610a02565b6040513d84823e3d90fd5b503461013a57604036600319011261013a57610a94610bf4565b60043581526004602052602435604082205580f35b9050346107be5760203660031901126107be5760ff604060209360043581526002855220541615158152f35b600435906001600160a01b0382168203610aeb57565b600080fd5b60c0810190811067ffffffffffffffff821117610b0c57604052565b634e487b7160e01b600052604160045260246000fd5b90601f8019910116810190811067ffffffffffffffff821117610b0c57604052565b90816020910312610aeb57518015158103610aeb5790565b15610b6357565b60405162461bcd60e51b815260206004820152601060248201526f546f6b656e496420696e76616c69646f60801b6044820152606490fd5b60c0906003190112610aeb5760405190610bb482610af0565b6004358252816024356001600160a01b0381168103610aeb57602082015260443560408201526064356060820152608435608082015260a060a435910152565b6000546001600160a01b03163303610c0857565b60405163118cdaa760e01b8152336004820152602490fd5b8151919060418303610c5157610c4a92506020820151906060604084015193015160001a90610ce1565b9192909190565b505060009160029190565b6004811015610ccb5780610c6e575050565b60018103610c885760405163f645eedf60e01b8152600490fd5b60028103610ca95760405163fce698f760e01b815260048101839052602490fd5b600314610cb35750565b602490604051906335e2f38360e21b82526004820152fd5b634e487b7160e01b600052602160045260246000fd5b91907f7fffffffffffffffffffffffffffffff5d576e7357a4501ddfe92f46681b20a08411610d6557926020929160ff608095604051948552168484015260408301526060820152600092839182805260015afa15610d595780516001600160a01b03811615610d5057918190565b50809160019190565b604051903d90823e3d90fd5b5050506000916003919056fea2646970667358221220dce55de52fb1d87c241916c57f2766e9282154476d85c7373149e99ad2949d1964736f6c63430008180033",
  "linkReferences": {},
  "deployedLinkReferences": {}
}