{
  "_format": "hh-sol-artifact-1",
  "contractName": "FanToken",
  "sourceName": "contracts/FanToken.sol",
  "abi": [
    {
      "inputs": [],
      "stateMutability": "nonpayable",
      "type": "constructor"
    },
    {
      "inputs": [
        {
          "internalType": "address",
          "name": "owner",
          "type": "address"
        }
      ],
      "name": "OwnableInvalidOwner",
      "type": "error"
    },
    {
      "inputs": [
        {
          "internalType": "address",
          "name": "account",
          "type": "address"
        }
      ],
      "name": "OwnableUnauthorizedAccount",
      "type": "error"
    },
    {
      "anonymous": false,
      "inputs": [
        {
          "indexed": true,
          "internalType": "uint256",
          "name": "clubId",
          "type": "uint256"
        },
        {
          "indexed": true,
          "internalType": "address",
          "name": "owner",
          "type": "address"
        },
        {
          "indexed": true,
          "internalType": "address",
          "name": "spender",
          "type": "address"
        },
        {
          "indexed": false,
          "internalType": "uint256",
          "name": "amount",
          "type": "uint256"
        }
      ],
      "name": "Approval",
      "type": "event"
    },
    {
      "anonymous": false,
      "inputs": [
        {
          "indexed": true,
          "internalType": "address",
          "name": "from",
          "type": "address"
        },
        {
          "indexed": true,
          "internalType": "address",
          "name": "to",
          "type": "address"
        },
        {
          "indexed": true,
          "internalType": "uint256",
          "name": "clubId",
          "type": "uint256"
        },
        {
          "indexed": false,
          "internalType": "uint256",
          "name": "amount",
          "type": "uint256"
        },
        {
          "indexed": false,
          "internalType": "address",
          "name": "executor",
          "type": "address"
        }
      ],
      "name": "MetaTransferExecuted",
      "type": "event"
    },
    {
      "anonymous": false,
      "inputs": [
        {
          "indexed": true,
          "internalType": "address",
          "name": "previousOwner",
          "type": "address"
        },
        {
          "indexed": true,
          "internalType": "address",
          "name": "newOwner",
          "type": "address"
        }
      ],
      "name": "OwnershipTransferred",
      "type": "event"
    },
    {
      "anonymous": false,
      "inputs": [
        {
          "indexed": true,
          "internalType": "uint256",
          "name": "clubId",
          "type": "uint256"
        },
        {
          "indexed": false,
          "internalType": "string",
          "name": "name",
          "type": "string"
        },
        {
          "indexed": false,
          "internalType": "string",
          "name": "symbol",
          "type": "string"
        },
        {
          "indexed": false,
          "internalType": "uint256",
          "name": "initialSupply",
          "type": "uint256"
        },
        {
          "indexed": false,
          "internalType": "address",
          "name": "creator",
          "type": "address"
        }
      ],
      "name": "TokenCreated",
      "type": "event"
    },
    {
      "anonymous": false,
      "inputs": [
        {
          "indexed": true,
          "internalType": "uint256",
          "name": "clubId",
          "type": "uint256"
        },
        {
          "indexed": true,
          "internalType": "address",
          "name": "from",
          "type": "address"
        },
        {
          "indexed": true,
          "internalType": "address",
          "name": "to",
          "type": "address"
        },
        {
          "indexed": false,
          "internalType": "uint256",
          "name": "amount",
          "type": "uint256"
        }
      ],
      "name": "Transfer",
      "type": "event"
    },
    {
      "inputs": [],
      "name": "DOMAIN_NAME",
      "outputs": [
        {
          "internalType": "string",
          "name": "",
          "type": "string"
        }
      ],
      "stateMutability": "view",
      "type": "function"
    },
    {
      "inputs": [],
      "name": "DOMAIN_TYPEHASH",
      "outputs": [
        {
          "internalType": "bytes32",
          "name": "",
          "type": "bytes32"
        }
      ],
      "stateMutability": "view",
      "type": "function"
    },
    {
      "inputs": [],
      "name": "DOMAIN_VERSION",
      "outputs": [
        {
          "internalType": "string",
          "name": "",
          "type": "string"
        }
      ],
      "stateMutability": "view",
      "type": "function"
    },
    {
      "inputs": [],
      "name": "TRANSFER_TYPEHASH",
      "outputs": [
        {
          "internalType": "bytes32",
          "name": "",
          "type": "bytes32"
        }
      ],
      "stateMutability": "view",
      "type": "function"
    },
    {
      "inputs": [
        {
          "internalType": "uint256",
          "name": "",
          "type": "uint256"
        }
      ],
      "name": "allClubIds",
      "outputs": [
        {
          "internalType": "uint256",
          "name": "",
          "type": "uint256"
        }
      ],
      "stateMutability": "view",
      "type": "function"
    },
    {
      "inputs": [
        {
          "internalType": "uint256",
          "name": "clubId",
          "type": "uint256"
        },
        {
          "internalType": "address",
          "name": "owner",
          "type": "address"
        },
        {
          "internalType": "address",
          "name": "spender",
          "type": "address"
        }
      ],
      "name": "allowance",
      "outputs": [
        {
          "internalType": "uint256",
          "name": "",
          "type": "uint256"
        }
      ],
      "stateMutability": "view",
      "type": "function"
    },
    {
      "inputs": [
        {
          "internalType": "uint256",
          "name": "",
          "type": "uint256"
        },
        {
          "internalType": "address",
          "name": "",
          "type": "address"
        },
        {
          "internalType": "address",
          "name": "",
          "type": "address"
        }
      ],
      "name": "allowances",
      "outputs": [
        {
          "internalType": "uint256",
          "name": "",
          "type": "uint256"
        }
      ],
      "stateMutability": "view",
      "type": "function"
    },
    {
      "inputs": [
        {
          "internalType": "uint256",
          "name": "clubId",
          "type": "uint256"
        },
        {
          "internalType": "address",
          "name": "spender",
          "type": "address"
        },
        {
          "internalType": "uint256",
          "name": "amount",
          "type": "uint256"
        }
      ],
      "name": "approve",
      "outputs": [
        {
          "internalType": "bool",
          "name": "",
          "type": "bool"
        }
      ],
      "stateMutability": "nonpayable",
      "type": "function"
    },
    {
      "inputs": [
        {
          "internalType": "uint256",
          "name": "clubId",
          "type": "uint256"
        },
        {
          "internalType": "address",
          "name": "holder",
          "type": "address"
        }
      ],
      "name": "balanceOf",
      "outputs": [
        {
          "internalType": "uint256",
          "name": "",
          "type": "uint256"
        }
      ],
      "stateMutability": "view",
      "type": "function"
    },
    {
      "inputs": [
        {
          "internalType": "uint256",
          "name": "",
          "type": "uint256"
        },
        {
          "internalType": "address",
          "name": "",
          "type": "address"
        }
      ],
      "name": "balances",
      "outputs": [
        {
          "internalType": "uint256",
          "name": "",
          "type": "uint256"
        }
      ],
      "stateMutability": "view",
      "type": "function"
    },
    {
      "inputs": [
        {
          "internalType": "uint256",
          "name": "clubId",
          "type": "uint256"
        },
        {
          "internalType": "string",
          "name": "name",
          "type": "string"
        },
        {
          "internalType": "string",
          "name": "symbol",
          "type": "string"
        },
        {
          "internalType": "uint256",
          "name": "initialSupply",
          "type": "uint256"
        }
      ],
      "name": "createToken",
      "outputs": [],
      "stateMutability": "nonpayable",
      "type": "function"
    },
    {
      "inputs": [
        {
          "internalType": "address",
          "name": "holder",
          "type": "address"
        }
      ],
      "name": "getHolderTokens",
      "outputs": [
        {
          "internalType": "uint256[]",
          "name": "",
          "type": "uint256[]"
        }
      ],
      "stateMutability": "view",
      "type": "function"
    },
    {
      "inputs": [
        {
          "internalType": "address",
          "name": "user",
          "type": "address"
        }
      ],
      "name": "getNonce",
      "outputs": [
        {
          "internalType": "uint256",
          "name": "",
          "type": "uint256"
        }
      ],
      "stateMutability": "view",
      "type": "function"
    },
    {
      "inputs": [],
      "name": "getTokenCount",
      "outputs": [
        {
          "internalType": "uint256",
          "name": "",
          "type": "uint256"
        }
      ],
      "stateMutability": "view",
      "type": "function"
    },
    {
      "inputs": [
        {
          "internalType": "uint256",
          "name": "clubId",
          "type": "uint256"
        }
      ],
      "name": "getTokenDetails",
      "outputs": [
        {
          "internalType": "string",
          "name": "name",
          "type": "string"
        },
        {
          "internalType": "string",
          "name": "symbol",
          "type": "string"
        },
        {
          "internalType": "uint256",
          "name": "totalSupply",
          "type": "uint256"
        }
      ],
      "stateMutability": "view",
      "type": "function"
    },
    {
      "inputs": [
        {
          "internalType": "address",
          "name": "",
          "type": "address"
        },
        {
          "internalType": "uint256",
          "name": "",
          "type": "uint256"
        }
      ],
      "name": "holderHasToken",
      "outputs": [
        {
          "internalType": "bool",
          "name": "",
          "type": "bool"
        }
      ],
      "stateMutability": "view",
      "type": "function"
    },
    {
      "inputs": [
        {
          "internalType": "address",
          "name": "",
          "type": "address"
        },
        {
          "internalType": "uint256",
          "name": "",
          "type": "uint256"
        }
      ],
      "name": "holderTokens",
      "outputs": [
        {
          "internalType": "uint256",
          "name": "",
          "type": "uint256"
        }
      ],
      "stateMutability": "view",
      "type": "function"
    },
    {
      "inputs": [
        {
          "internalType": "uint256",
          "name": "clubId",
          "type": "uint256"
        },
        {
          "internalType": "address",
          "name": "from",
          "type": "address"
        },
        {
          "internalType": "address",
          "name": "to",
          "type": "address"
        },
        {
          "internalType": "uint256",
          "name": "amount",
          "type": "uint256"
        },
        {
          "internalType": "uint256",
          "name": "deadline",
          "type": "uint256"
        },
        {
          "internalType": "uint8",
          "name": "v",
          "type": "uint8"
        },
        {
          "internalType": "bytes32",
          "name": "r",
          "type": "bytes32"
        },
        {
          "internalType": "bytes32",
          "name": "s",
          "type": "bytes32"
        }
      ],
      "name": "metaTransfer",
      "outputs": [
        {
          "internalType": "bool",
          "name": "",
          "type": "bool"
        }
      ],
      "stateMutability": "nonpayable",
      "type": "function"
    },
    {
      "inputs": [
        {
          "internalType": "uint256",
          "name": "clubId",
          "type": "uint256"
        },
        {
          "internalType": "uint256",
          "name": "amount",
          "type": "uint256"
        }
      ],
      "name": "mint",
      "outputs": [],
      "stateMutability": "nonpayable",
      "type": "function"
    },
    {
      "inputs": [
        {
          "internalType": "address",
          "name": "",
          "type": "address"
        }
      ],
      "name": "nonces",
      "outputs": [
        {
          "internalType": "uint256",
          "name": "",
          "type": "uint256"
        }
      ],
      "stateMutability": "view",
      "type": "function"
    },
    {
      "inputs": [],
      "name": "owner",
      "outputs": [
        {
          "internalType": "address",
          "name": "",
          "type": "address"
        }
      ],
      "stateMutability": "view",
      "type": "function"
    },
    {
      "inputs": [],
      "name": "renounceOwnership",
      "outputs": [],
      "stateMutability": "nonpayable",
      "type": "function"
    },
    {
      "inputs": [
        {
          "internalType": "uint256",
          "name": "",
          "type": "uint256"
        }
      ],
      "name": "tokens",
      "outputs": [
        {
          "internalType": "string",
          "name": "name",
          "type": "string"
        },
        {
          "internalType": "string",
          "name": "symbol",
          "type": "string"
        },
        {
          "internalType": "uint256",
          "name": "totalSupply",
          "type": "uint256"
        },
        {
          "internalType": "address",
          "name": "creator",
          "type": "address"
        },
        {
          "internalType": "bool",
          "name": "exists",
          "type": "bool"
        }
      ],
      "stateMutability": "view",
      "type": "function"
    },
    {
      "inputs": [
        {
          "internalType": "uint256",
          "name": "clubId",
          "type": "uint256"
        },
        {
          "internalType": "address",
          "name": "to",
          "type": "address"
        },
        {
          "internalType": "uint256",
          "name": "amount",
          "type": "uint256"
        }
      ],
      "name": "transfer",
      "outputs": [
        {
          "internalType": "bool",
          "name": "",
          "type": "bool"
        }
      ],
      "stateMutability": "nonpayable",
      "type": "function"
    },
    {
      "inputs": [
        {
          "internalType": "uint256",
          "name": "clubId",
          "type": "uint256"
        },
        {
          "internalType": "address",
          "name": "from",
          "type": "address"
        },
        {
          "internalType": "address",
          "name": "to",
          "type": "address"
        },
        {
          "internalType": "uint256",
          "name": "amount",
          "type": "uint256"
        }
      ],
      "name": "transferFrom",
      "outputs": [
        {
          "internalType": "bool",
          "name": "",
          "type": "bool"
        }
      ],
      "stateMutability": "nonpayable",
      "type": "function"
    },
    {
      "inputs": [
        {
          "internalType": "uint256",
          "name": "clubId",
          "type": "uint256"
        },
        {
          "internalType": "address",
          "name": "to",
          "type": "address"
        },
        {
          "internalType": "uint256",
          "name": "amount",
          "type": "uint256"
        }
      ],
      "name": "transferFromByOwner",
      "outputs": [],
      "stateMutability": "nonpayable",
      "type": "function"
    },
    {
      "inputs": [
        {
          "internalType": "address",
          "name": "newOwner",
          "type": "address"
        }
      ],
      "name": "transferOwnership",
      "outputs": [],
      "stateMutability": "nonpayable",
      "type": "function"
    }
  ],
  "bytecode": "0x608060405234801561001057600080fd5b50338061003757604051631e4fbdf760e01b81526000600482015260240160405180910390fd5b61004081610046565b50610096565b600080546001600160a01b038381166001600160a01b0319831681178455604051919092169283917f8be0079c531659141344cd1fd0a4f28419497f9722a3daafe3b4186f6b6457e09190a35050565b6120d4806100a56000396000f3fe608060405234801561001057600080fd5b50600436106101a85760003560e01c8063715018a6116100f9578063acb8cc4911610097578063e547e69311610071578063e547e6931461044c578063e70d6dc51461046c578063f2fde38b1461049d578063f8548e36146104b057600080fd5b8063acb8cc49146103dc578063b63d9bc6146103fc578063c1e037281461042a57600080fd5b8063796f077b116100d3578063796f077b146103535780637ecebe001461038e5780638cb0a511146103ae5780638da5cb5b146103c157600080fd5b8063715018a614610330578063783c82e91461033857806378a895671461034b57600080fd5b80631c0f12b6116101665780632d0335ab116101405780632d0335ab146102bd5780633656eec2146102e65780633e2beb94146102f95780634f64b2be1461030c57600080fd5b80631c0f12b6146102485780631f3203311461026b57806320606b701461029657600080fd5b8062bf26f4146101ad5780630cc1e384146101e75780630d550b75146101fc57806313ad54a21461020f5780631b2ef1ca146102225780631b62581414610235575b600080fd5b6101d47fb42422f2fbe2dcf7a0fe2058ce6d285d05696c37ee433443e8495e57d531be0c81565b6040519081526020015b60405180910390f35b6101fa6101f53660046119ed565b6104c3565b005b6101d461020a366004611a22565b610688565b6101d461021d366004611a5e565b6106f1565b6101fa610230366004611a77565b610712565b6101d4610243366004611a99565b6107d2565b61025b610256366004611ac3565b610803565b60405190151581526020016101de565b6101d4610279366004611b07565b600360209081526000928352604080842090915290825290205481565b6101d47f8b73c3c69bb8fe3d512ecc4cf759cc79239f7b179b0ffacaa9a75d522b39400f81565b6101d46102cb366004611b33565b6001600160a01b031660009081526001602052604090205490565b6101d46102f4366004611b07565b6109dd565b6101fa610307366004611bf8565b610a40565b61031f61031a366004611a5e565b610cde565b6040516101de959493929190611cb3565b6101fa610e2b565b61025b610346366004611d01565b610e3f565b6005546101d4565b6103816040518060400160405280600f81526020016e2330b730ba34b8bab2902a37b5b2b760891b81525081565b6040516101de9190611d7d565b6101d461039c366004611b33565b60016020526000908152604090205481565b61025b6103bc3660046119ed565b611027565b6000546040516001600160a01b0390911681526020016101de565b610381604051806040016040528060018152602001603160f81b81525081565b61025b61040a366004611a99565b600760209081526000928352604080842090915290825290205460ff1681565b61043d610438366004611a5e565b61113b565b6040516101de93929190611d90565b61045f61045a366004611b33565b611305565b6040516101de9190611dc6565b6101d461047a366004611a22565b600460209081526000938452604080852082529284528284209052825290205481565b6101fa6104ab366004611b33565b611371565b61025b6104be3660046119ed565b6113af565b6104cb611556565b600083815260026020526040902060030154600160a01b900460ff1661050c5760405162461bcd60e51b815260040161050390611e0a565b60405180910390fd5b6001600160a01b0382166105325760405162461bcd60e51b815260040161050390611e34565b600083815260036020908152604080832033845290915290205481111561056b5760405162461bcd60e51b815260040161050390611e84565b600083815260036020908152604080832033845290915281208054839290610594908490611ec6565b909155505060008381526003602090815260408083206001600160a01b0386168452909152812080548392906105cb908490611ed9565b90915550506001600160a01b038216600090815260076020908152604080832086845290915290205460ff16610647576001600160a01b038216600081815260066020908152604080832080546001818101835591855283852001889055938352600782528083208784529091529020805460ff191690911790555b816001600160a01b0316336001600160a01b03168460008051602061207f8339815191528460405161067b91815260200190565b60405180910390a4505050565b600083815260026020526040812060030154600160a01b900460ff166106c05760405162461bcd60e51b815260040161050390611e0a565b5060009283526004602090815260408085206001600160a01b03948516865282528085209290931684525290205490565b6005818154811061070157600080fd5b600091825260209091200154905081565b61071a611556565b600082815260026020526040902060030154600160a01b900460ff166107525760405162461bcd60e51b815260040161050390611e0a565b60008281526002602081905260408220018054839290610773908490611ed9565b90915550506000828152600360205260408120829161079a6000546001600160a01b031690565b6001600160a01b03166001600160a01b0316815260200190815260200160002060008282546107c99190611ed9565b90915550505050565b600660205281600052604060002081815481106107ee57600080fd5b90600052602060002001600091509150505481565b600084815260026020526040812060030154600160a01b900460ff1661083b5760405162461bcd60e51b815260040161050390611e0a565b6001600160a01b0383166108615760405162461bcd60e51b815260040161050390611e34565b3361086e86868386611583565b60008681526003602090815260408083206001600160a01b03891684529091529020548311156108b05760405162461bcd60e51b815260040161050390611e84565b60008681526003602090815260408083206001600160a01b0389168452909152812080548592906108e2908490611ec6565b909155505060008681526003602090815260408083206001600160a01b038816845290915281208054859290610919908490611ed9565b90915550506001600160a01b038416600090815260076020908152604080832089845290915290205460ff16610995576001600160a01b0384166000818152600660209081526040808320805460018181018355918552838520018b9055938352600782528083208a84529091529020805460ff191690911790555b836001600160a01b0316856001600160a01b03168760008051602061207f833981519152866040516109c991815260200190565b60405180910390a450600195945050505050565b600082815260026020526040812060030154600160a01b900460ff16610a155760405162461bcd60e51b815260040161050390611e0a565b5060008281526003602090815260408083206001600160a01b03851684529091529020545b92915050565b610a48611556565b600084815260026020526040902060030154600160a01b900460ff1615610ab15760405162461bcd60e51b815260206004820152601f60248201527f546f6b656e2070617261206573746520636c756265206a6120657869737465006044820152606401610503565b6040805160a081018252848152602080820185905281830184905233606083015260016080830152600087815260029091529190912081518190610af59082611f77565b5060208201516001820190610b0a9082611f77565b5060408281015160028301556060830151600392830180546080909501511515600160a01b026001600160a81b03199095166001600160a01b03909216919091179390931790925560008681526020919091529081208291610b746000546001600160a01b031690565b6001600160a01b031681526020810191909152604001600090812091909155600580546001810182559082527f036b6384b5eca791c62761152d0c79bb0604c104a5fb6f4eb0703f3154bb3db001859055600790610bda6000546001600160a01b031690565b6001600160a01b031681526020808201929092526040908101600090812087825290925290205460ff16610c9a5760066000610c1e6000546001600160a01b031690565b6001600160a01b031681526020808201929092526040016000908120805460018181018355918352928220909201869055600790610c646000546001600160a01b031690565b6001600160a01b03168152602080820192909252604090810160009081208882529092529020805460ff19169115159190911790555b837fe35b753df5e60b403cc8967251ddfe52897faffcde86aee663382e991bd8f67784848433604051610cd09493929190612037565b60405180910390a250505050565b600260205260009081526040902080548190610cf990611eec565b80601f0160208091040260200160405190810160405280929190818152602001828054610d2590611eec565b8015610d725780601f10610d4757610100808354040283529160200191610d72565b820191906000526020600020905b815481529060010190602001808311610d5557829003601f168201915b505050505090806001018054610d8790611eec565b80601f0160208091040260200160405190810160405280929190818152602001828054610db390611eec565b8015610e005780601f10610dd557610100808354040283529160200191610e00565b820191906000526020600020905b815481529060010190602001808311610de357829003601f168201915b5050505060028301546003909301549192916001600160a01b0381169150600160a01b900460ff1685565b610e33611556565b610e3d6000611645565b565b600084421115610e915760405162461bcd60e51b815260206004820152601b60248201527f4d6574612d7472616e73666572656e63696120657870697261646100000000006044820152606401610503565b600089815260026020526040902060030154600160a01b900460ff16610ec95760405162461bcd60e51b815260040161050390611e0a565b6001600160a01b038716610eef5760405162461bcd60e51b815260040161050390611e34565b6001600160a01b038816600090815260016020526040902054610f198a8a8a8a8a868b8b8b611695565b610f5b5760405162461bcd60e51b8152602060048201526013602482015272417373696e617475726120696e76616c69646160681b6044820152606401610503565b60008a81526003602090815260408083206001600160a01b038d168452909152902054871115610f9d5760405162461bcd60e51b815260040161050390611e84565b610fa8816001611ed9565b6001600160a01b038a16600090815260016020526040902055610fcd8a8a8a8a6118aa565b604080518881523360208201528b916001600160a01b03808c1692908d16917f50e837db3ac6c873bec5c4d1e2af1b32c9ac16cce656e3d96efdf3ef1b03f5b4910160405180910390a45060019998505050505050505050565b600083815260026020526040812060030154600160a01b900460ff1661105f5760405162461bcd60e51b815260040161050390611e0a565b6001600160a01b0383166110ca5760405162461bcd60e51b815260206004820152602c60248201527f4170726f766163616f2070617261206f20656e64657265636f207a65726f206e60448201526b616f207065726d697469646160a01b6064820152608401610503565b6000848152600460209081526040808320338085529083528184206001600160a01b038816808652908452938290208690559051858152909187917f69e4aaf23f9318cf40839ac20453d8fbedaac2955eb08a27ae5189cc7192571691015b60405180910390a45060019392505050565b6000818152600260205260408120600301546060918291600160a01b900460ff166111785760405162461bcd60e51b815260040161050390611e0a565b600084815260026020526040808220815160a0810190925280548290829061119f90611eec565b80601f01602080910402602001604051908101604052809291908181526020018280546111cb90611eec565b80156112185780601f106111ed57610100808354040283529160200191611218565b820191906000526020600020905b8154815290600101906020018083116111fb57829003601f168201915b5050505050815260200160018201805461123190611eec565b80601f016020809104026020016040519081016040528092919081815260200182805461125d90611eec565b80156112aa5780601f1061127f576101008083540402835291602001916112aa565b820191906000526020600020905b81548152906001019060200180831161128d57829003601f168201915b505050918352505060028201546020808301919091526003909201546001600160a01b038116604080840191909152600160a01b90910460ff1615156060909201919091528251918301519201519097919650945092505050565b6001600160a01b03811660009081526006602090815260409182902080548351818402810184019094528084526060939283018282801561136557602002820191906000526020600020905b815481526020019060010190808311611351575b50505050509050919050565b611379611556565b6001600160a01b0381166113a357604051631e4fbdf760e01b815260006004820152602401610503565b6113ac81611645565b50565b600083815260026020526040812060030154600160a01b900460ff166113e75760405162461bcd60e51b815260040161050390611e0a565b6001600160a01b03831661140d5760405162461bcd60e51b815260040161050390611e34565b60008481526003602090815260408083203384529091529020548211156114465760405162461bcd60e51b815260040161050390611e84565b60008481526003602090815260408083203384529091528120805484929061146f908490611ec6565b909155505060008481526003602090815260408083206001600160a01b0387168452909152812080548492906114a6908490611ed9565b90915550506001600160a01b038316600090815260076020908152604080832087845290915290205460ff16611522576001600160a01b038316600081815260066020908152604080832080546001818101835591855283852001899055938352600782528083208884529091529020805460ff191690911790555b826001600160a01b0316336001600160a01b03168560008051602061207f8339815191528560405161112991815260200190565b6000546001600160a01b03163314610e3d5760405163118cdaa760e01b8152336004820152602401610503565b60008481526004602090815260408083206001600160a01b0380881685529083528184209086168452909152902054600019811461163e57818110156116045760405162461bcd60e51b8152602060048201526016602482015275416c6c6f77616e636520696e737566696369656e746560501b6044820152606401610503565b61160e8282611ec6565b60008681526004602090815260408083206001600160a01b03808a16855290835281842090881684529091529020555b5050505050565b600080546001600160a01b038381166001600160a01b0319831681178455604051919092169283917f8be0079c531659141344cd1fd0a4f28419497f9722a3daafe3b4186f6b6457e09190a35050565b600080611771604080518082018252600f81526e2330b730ba34b8bab2902a37b5b2b760891b6020918201528151808301835260018152603160f81b9082015281517f8b73c3c69bb8fe3d512ecc4cf759cc79239f7b179b0ffacaa9a75d522b39400f818301527f70876848ba7954b7173ac6a25e8eb1d37063b470e788c932bcc5e3b6e14d0ca7818401527fc89efdaa54c0f20c7adf612882df0950f5a951637e0307cdcb4c672f298b8bc660608201524660808201523060a0808301919091528351808303909101815260c0909101909252815191012090565b604080517fb42422f2fbe2dcf7a0fe2058ce6d285d05696c37ee433443e8495e57d531be0c6020808301919091528183018f90526001600160a01b038e811660608401528d16608083015260a082018c905260c082018a905260e08083018c9052835180840390910181526101008301909352825192019190912061190160f01b610120830152610122820183905261014282018190529192506000906101620160408051601f198184030181528282528051602091820120600080855291840180845281905260ff8b169284019290925260608301899052608083018890529092509060019060a0016020604051602081039080840390855afa15801561187d573d6000803e3d6000fd5b5050604051601f1901516001600160a01b03908116908f1614955050505050509998505050505050505050565b60008481526003602090815260408083206001600160a01b0387168452909152812080548392906118dc908490611ec6565b909155505060008481526003602090815260408083206001600160a01b038616845290915281208054839290611913908490611ed9565b90915550506001600160a01b038216600090815260076020908152604080832087845290915290205460ff1661198f576001600160a01b038216600081815260066020908152604080832080546001818101835591855283852001899055938352600782528083208884529091529020805460ff191690911790555b816001600160a01b0316836001600160a01b03168560008051602061207f833981519152846040516119c391815260200190565b60405180910390a450505050565b80356001600160a01b03811681146119e857600080fd5b919050565b600080600060608486031215611a0257600080fd5b83359250611a12602085016119d1565b9150604084013590509250925092565b600080600060608486031215611a3757600080fd5b83359250611a47602085016119d1565b9150611a55604085016119d1565b90509250925092565b600060208284031215611a7057600080fd5b5035919050565b60008060408385031215611a8a57600080fd5b50508035926020909101359150565b60008060408385031215611aac57600080fd5b611ab5836119d1565b946020939093013593505050565b60008060008060808587031215611ad957600080fd5b84359350611ae9602086016119d1565b9250611af7604086016119d1565b9396929550929360600135925050565b60008060408385031215611b1a57600080fd5b82359150611b2a602084016119d1565b90509250929050565b600060208284031215611b4557600080fd5b611b4e826119d1565b9392505050565b634e487b7160e01b600052604160045260246000fd5b600082601f830112611b7c57600080fd5b813567ffffffffffffffff80821115611b9757611b97611b55565b604051601f8301601f19908116603f01168101908282118183101715611bbf57611bbf611b55565b81604052838152866020858801011115611bd857600080fd5b836020870160208301376000602085830101528094505050505092915050565b60008060008060808587031215611c0e57600080fd5b84359350602085013567ffffffffffffffff80821115611c2d57600080fd5b611c3988838901611b6b565b94506040870135915080821115611c4f57600080fd5b50611c5c87828801611b6b565b949793965093946060013593505050565b6000815180845260005b81811015611c9357602081850181015186830182015201611c77565b506000602082860101526020601f19601f83011685010191505092915050565b60a081526000611cc660a0830188611c6d565b8281036020840152611cd88188611c6d565b604084019690965250506001600160a01b03929092166060830152151560809091015292915050565b600080600080600080600080610100898b031215611d1e57600080fd5b88359750611d2e60208a016119d1565b9650611d3c60408a016119d1565b9550606089013594506080890135935060a089013560ff81168114611d6057600080fd5b979a969950949793969295929450505060c08201359160e0013590565b602081526000611b4e6020830184611c6d565b606081526000611da36060830186611c6d565b8281036020840152611db58186611c6d565b915050826040830152949350505050565b6020808252825182820181905260009190848201906040850190845b81811015611dfe57835183529284019291840191600101611de2565b50909695505050505050565b60208082526010908201526f546f6b656e206e616f2065786973746560801b604082015260600190565b60208082526030908201527f5472616e73666572656e6369612070617261206f20656e64657265636f207a6560408201526f726f206e616f207065726d697469646160801b606082015260800190565b60208082526012908201527153616c646f20696e737566696369656e746560701b604082015260600190565b634e487b7160e01b600052601160045260246000fd5b81810381811115610a3a57610a3a611eb0565b80820180821115610a3a57610a3a611eb0565b600181811c90821680611f0057607f821691505b602082108103611f2057634e487b7160e01b600052602260045260246000fd5b50919050565b601f821115611f72576000816000526020600020601f850160051c81016020861015611f4f5750805b601f850160051c820191505b81811015611f6e57828155600101611f5b565b5050505b505050565b815167ffffffffffffffff811115611f9157611f91611b55565b611fa581611f9f8454611eec565b84611f26565b602080601f831160018114611fda5760008415611fc25750858301515b600019600386901b1c1916600185901b178555611f6e565b600085815260208120601f198616915b8281101561200957888601518255948401946001909101908401611fea565b50858210156120275787850151600019600388901b60f8161c191681555b5050505050600190811b01905550565b60808152600061204a6080830187611c6d565b828103602084015261205c8187611c6d565b604084019590955250506001600160a01b03919091166060909101529291505056fef2dbd98d79f00f7aff338b824931d607bfcc63d47307162470f25a055102d3b0a2646970667358221220a2a8e6bb2d7a7922565a017ca4781f5a2c5136143e125a4d888183b6aa76a30e64736f6c63430008180033",
  "linkReferences": {},
  "deployedLinkReferences": {}
}